{
  "contractName": "BeanzFounder",
  "abi": [
    {
      "inputs": [],
      "stateMutability": "nonpayable",
      "type": "constructor"
    },
    {
      "inputs": [
        {
          "internalType": "address",
          "name": "",
          "type": "address"
        }
      ],
      "name": "founders",
      "outputs": [
        {
          "internalType": "bool",
          "name": "member",
          "type": "bool"
        },
        {
          "internalType": "address",
          "name": "founder",
          "type": "address"
        }
      ],
      "stateMutability": "view",
      "type": "function",
      "constant": true
    },
    {
      "inputs": [],
      "name": "memberCount",
      "outputs": [
        {
          "internalType": "uint256",
          "name": "",
          "type": "uint256"
        }
      ],
      "stateMutability": "view",
      "type": "function",
      "constant": true
    },
    {
      "inputs": [],
      "name": "subscribe",
      "outputs": [],
      "stateMutability": "nonpayable",
      "type": "function"
    }
  ],
  "bytecode": "0x608060405234801561001057600080fd5b5060006001819055506104e3806100286000396000f3fe608060405234801561001057600080fd5b50600436106100415760003560e01c806311aee380146100465780638f449a0514610064578063de6746a51461006e575b600080fd5b61004e61009f565b60405161005b9190610294565b60405180910390f35b61006c6100a5565b005b61008860048036038101906100839190610312565b61022a565b604051610096929190610369565b60405180910390f35b60015481565b60008060003373ffffffffffffffffffffffffffffffffffffffff1673ffffffffffffffffffffffffffffffffffffffff16815260200190815260200160002090508060000160009054906101000a900460ff1615610139576040517f08c379a000000000000000000000000000000000000000000000000000000000815260040161013090610415565b60405180910390fd5b60405180604001604052806001151581526020013373ffffffffffffffffffffffffffffffffffffffff168152506000803373ffffffffffffffffffffffffffffffffffffffff1673ffffffffffffffffffffffffffffffffffffffff16815260200190815260200160002060008201518160000160006101000a81548160ff02191690831515021790555060208201518160000160016101000a81548173ffffffffffffffffffffffffffffffffffffffff021916908373ffffffffffffffffffffffffffffffffffffffff1602179055509050506001600081548092919061022290610464565b919050555050565b60006020528060005260406000206000915090508060000160009054906101000a900460ff16908060000160019054906101000a900473ffffffffffffffffffffffffffffffffffffffff16905082565b6000819050919050565b61028e8161027b565b82525050565b60006020820190506102a96000830184610285565b92915050565b600080fd5b600073ffffffffffffffffffffffffffffffffffffffff82169050919050565b60006102df826102b4565b9050919050565b6102ef816102d4565b81146102fa57600080fd5b50565b60008135905061030c816102e6565b92915050565b600060208284031215610328576103276102af565b5b6000610336848285016102fd565b91505092915050565b60008115159050919050565b6103548161033f565b82525050565b610363816102d4565b82525050565b600060408201905061037e600083018561034b565b61038b602083018461035a565b9392505050565b600082825260208201905092915050565b7f6d756c7469706c6520737562736372697074696f6e7320617265206e6f74206160008201527f6c6c6f7765642e00000000000000000000000000000000000000000000000000602082015250565b60006103ff602783610392565b915061040a826103a3565b604082019050919050565b6000602082019050818103600083015261042e816103f2565b9050919050565b7f4e487b7100000000000000000000000000000000000000000000000000000000600052601160045260246000fd5b600061046f8261027b565b91507fffffffffffffffffffffffffffffffffffffffffffffffffffffffffffffffff8214156104a2576104a1610435565b5b60018201905091905056fea26469706673582212208c14650b2e54b815669a787c29eac58bda662333017c2faf9dbea0e7338f164164736f6c63430008090033",
  "immutableReferences": {},
  "source": "// SPDX-License-Identifier: MIT\npragma solidity >=0.7.0 <0.9.0;\n\nimport \"./interfaces/IBeanzFounder.sol\";\n\ncontract BeanzFounder is IBeanzFounder {\n    struct Founder {\n        bool member;\n        address founder;\n    }\n\n    mapping(address => Founder) public founders;\n    uint256 public memberCount;\n\n    constructor() {\n        memberCount = 0;\n    }\n\n    function subscribe() public {\n        Founder storage founder = founders[msg.sender];\n        require(!founder.member, \"multiple subscriptions are not allowed.\");\n        founders[msg.sender] = Founder(true, msg.sender);\n        memberCount++;\n    }\n}\n",
  "sourcePath": "/Users/edinhadzovic/github/beanz-coin/tokens/contracts/BeanzFounder.sol",
  "compiler": {
    "name": "solc",
    "version": "0.8.9+commit.e5eed63a.Emscripten.clang"
  },
  "schemaVersion": "3.4.1",
  "updatedAt": "2021-10-20T14:33:13.797Z",
  "networkType": "ethereum",
  "devdoc": {
    "kind": "dev",
    "methods": {},
    "version": 1
  },
  "userdoc": {
    "kind": "user",
    "methods": {},
    "version": 1
  }
}